0000000000060070022019-09-300000000032XXXXXXXXXXXXXXXXXXXXXXXXXXXXXXXXXXXXXXXXXXXXXXXXXXXXXXXXXXXXXXXXXXXXXXXXXXXXXXXXXXXXXXXXXXXXXXXXXXXXXXXXXXXXXXXXXXXXXXXXXXXXXXXXXXXXXXXXXXXXXXXXXXXXXXXXXXXXXXXXXXXXXXXXXXXXXXXXXXXXXXXXXXXXXXXXXXXXXXXXXXXXXXXXXXXXXXXXXXXXXXXXXXXXXXXXXXXXXXXXXXXXXXXXXXXXXXXXXXXXXXX
00000000012019-09-14              10000001CO54398014771700730000068                       001              67507713     1091595644 VEGA                          NINO                          JEAN                          CARLOS                                                                          
00000000022019-09-14              30000001CO54398014771700730000100                       001             259665913     1091594390 PENARANDA                     PEREZ                         FABIAN                        EDUARDO                                                                         
00000000032019-09-16              26500001CO54398014771700730000118                       001             113963913       27742269 CLARO                         RUEDAS                        HERMINDA                      STELLA                                                                          
00000000042019-09-17               7700001CO54398014771700730000100                       001             259665913     1091594390 PENARANDA                     PEREZ                         FABIAN                        EDUARDO                                                                         
00000000052019-09-17              10000001CO54398014771700730000118                       001             113963913       27742269 CLARO                         RUEDAS                        HERMINDA                      STELLA                                                                          
00000000062019-09-19               6990006CO54498014771700730000100                       001             259665913     1091594390 PENARANDA                     PEREZ                         FABIAN                        EDUARDO                                                                         
00000000072019-09-19              46000001CO54398014771700730000092                       001             578812213        5459063 CLARO                         VELASQUEZ                     JOSE                          DEL                                                                             
00000000082019-09-19              80000001CO54398014771700730000100                       001             259665913     1091594390 PENARANDA                     PEREZ                         FABIAN                        EDUARDO                                                                         
00000000092019-09-20             150000001CO54398014771700730000142                       001              73816613        5458997 GARCIA                        CELIS                         ALVARO                                                                                                        
00000000102019-09-20              30000001CO54498014771700730000084                       001              80730313       37331102 CARRASCAL                     PENARANDA                     MARCIA                                                                                                        
00000000112019-09-21               1700001CO54398014771700730000126                       001              71165613     1091682090 PACHECO                       PACHECO                       NATALIA                                                                                                       
00000000122019-09-21               5000001CO54398014771700730000118                       001             113963913       27742269 CLARO                         RUEDAS                        HERMINDA                      STELLA                                                                          
00000000132019-09-21              30000001CO54398014771700730000142                       001              73816613        5458997 GARCIA                        CELIS                         ALVARO                                                                                                        
00000000142019-09-21              17000001CO54498014771700730000068                       001              67507713     1091595644 VEGA                          NINO                          JEAN                          CARLOS                                                                          
00000000152019-09-23               8000006CO54498014771700730000142                       001              73816613        5458997 GARCIA                        CELIS                         ALVARO                                                                                                        
00000000162019-09-24              10000001CO54398014771700730000100                       001             259665913     1091594390 PENARANDA                     PEREZ                         FABIAN                        EDUARDO                                                                         
00000000172019-09-24              15400001CO54398014771700730000068                       001              67507713     1091595644 VEGA                          NINO                          JEAN                          CARLOS                                                                          
00000000182019-09-24              32000001CO54398014771700730000100                       001             259665913     1091594390 PENARANDA                     PEREZ                         FABIAN                        EDUARDO                                                                         
00000000192019-09-24             100000001CO54398014771700730000142                       001              73816613        5458997 GARCIA                        CELIS                         ALVARO                                                                                                        
00000000202019-09-25               3000006CO54498014771700730000084                       001              80730313       37331102 CARRASCAL                     PENARANDA                     MARCIA                                                                                                        
00000000212019-09-25              20000001CO54398014771700730000118                       001             113963913       27742269 CLARO                         RUEDAS                        HERMINDA                      STELLA                                                                          
00000000222019-09-25              40000001CO54498014771700730000142                       001              73816613        5458997 GARCIA                        CELIS                         ALVARO                                                                                                        
00000000232019-09-26              10000001CO54398014771700730000126                       001              71165613     1091682090 PACHECO                       PACHECO                       NATALIA                                                                                                       
00000000242019-09-26              30000001CO54398014771700730000134                       001             116283613     1090367756 PENARANDA                     TORRES                        MAYRA                         ALEJANDRA                                                                       
00000000252019-09-26              50000001CO54398014771700730000092                       001             578812213        5459063 CLARO                         VELASQUEZ                     JOSE                          DEL                                                                             
00000000262019-09-26              30000001CO54498014771700730000084                       001              80730313       37331102 CARRASCAL                     PENARANDA                     MARCIA                                                                                                        
00000000272019-09-26              40000001CO54498014771700730000142                       001              73816613        5458997 GARCIA                        CELIS                         ALVARO                                                                                                        
00000000282019-09-27              45000001CO54398014771700730000068                       001              67507713     1091595644 VEGA                          NINO                          JEAN                          CARLOS                                                                          
00000000292019-09-27              70000001CO54398014771700730000142                       001              73816613        5458997 GARCIA                        CELIS                         ALVARO                                                                                                        
00000000302019-09-28              22400001CO54398014771700730000068                       001              67507713     1091595644 VEGA                          NINO                          JEAN                          CARLOS                                                                          
00000000312019-09-30              20000001CO54398014771700730000134                       001             116283613     1090367756 PENARANDA                     TORRES                        MAYRA                         ALEJANDRA                                                                       
00000000322019-09-30              50000001CO54398014771700730000142                       001              73816613        5458997 GARCIA                        CELIS                         ALVARO                                                                                                        
0000000000060070020000000032XXXXXXXXXXXXXXXXXXXXXXXXXXXXXXXXXXXXXXXXXXXXXXXXXXXXXXXXXXXXXXXXXXXXXXXXXXXXXXXXXXXXXXXXXXXXXXXXXXXXXXXXXXXXXXXXXXXXXXXXXXXXXXXXXXXXXXXXXXXXXXXXXXXXXXXXXXXXXXXXXXXXXXXXXXXXXXXXXXXXXXXXXXXXXXXXXXXXXXXXXXXXXXXXXXXXXXXXXXXXXXXXXXXXXXXXXXXXXXXXXXXXXXXXXXXXXXXXXXXXXXXXXXXXXXXXX
